:020000040800F2
:10000000604900209D010008A5010008A701000823
:10001000A9010008AB010008AD01000800000000C4
:10002000000000000000000000000000AF01000818
:10003000B101000800000000B30100081B410008E6
:10004000B7010008B7010008B7010008B7010008B0
:10005000B7010008B7010008D9400008B70100083F
:10006000B7010008B7010008B7010008B701000890
:10007000B7010008B7010008B7010008B701000880
:10008000B7010008B7010008B7010008B701000870
:10009000B7010008B7010008B7010008E7400008F1
:1000A000B7010008B7010008B7010008B701000850
:1000B000B7010008B7010008B7010008B701000840
:1000C000B7010008B7010008B7010008B701000830
:1000D000B7010008B7010008B7010008B701000820
:1000E000F5400008B7010008B7010008B701000893
:1000F000B7010008B7010008B7010008B701000800
:10010000B7010008B7010008B7010008B7010008EF
:10011000B7010008B7010008B7010008B7010008DF
:10012000B7010008B7010008B7010008B7010008CF
:10013000B7010008B7010008B7010008B7010008BF
:10014000B7010008B7010008B7010008B7010008AF
:10015000B7010008B7010008B7010008B70100089F
:10016000B7010008B7010008B7010008B70100088F
:10017000B7010008B7010008B7010008B70100087F
:10018000B7010008B7010008DFF80CD008F040FB09
:10019000004800471745000860490020064880478E
:1001A00006480047FEE7FEE7FEE7FEE7FEE7FEE75C
:1001B000FEE7FEE7FEE7FEE79D0200088901000872
:1001C0000CB50020019000907648006840F4803023
:1001D0007449086000BF7348006800F40030009064
:1001E0000198401C0190009818B90198B0F5A04FF3
:1001F000F1D16C48006800F4003010B1012000908B
:1002000001E0002000900098012846D16548403068
:10021000006840F0805063494031086062480068DF
:1002200040F44040604908605E48083000685D491D
:10023000083108600846006840F40040086008463D
:10024000006840F4A05008605848091F0860081F63
:10025000006840F08070091F086000BF51480068C6
:1002600000F000700028F9D040F205705049086095
:100270004C480830006820F003004A490831086003
:100280000846006840F00200086000BF454808309A
:10029000006800F00C000828F8D10CBD10B54548E6
:1002A000006840F47000434908603E48006840F030
:1002B00001003C49086000203A490831086039488B
:1002C00000683D490840374908603C48091D0860FE
:1002D000081F006820F48020091F086000203149B1
:1002E0000C310860FFF76CFF4FF000603149803936
:1002F000086010BD70B500200022022300240221F6
:10030000284D08352D6805F00C0020B1042806D0D2
:10031000082834D107E02A4D2A4E356033E02A4DB3
:10032000284E35602FE01F4D2D1D2D68C5F38054DC
:100330001C4D2D1D2D6805F03F0154B1224DB5FB1C
:10034000F1F5184E361D3668C6F3881605FB06F221
:1003500009E01B4DB5FBF1F5124E361D3668C6F3AC
:10036000881605FB06F20F4D2D1D2D68C5F30145BE
:100370006D1C6B00B2FBF3F5124E356003E0104DBF
:10038000104E356000BF00BF064D08352D68C5F31F
:1003900003150E4E705D0B4D2D68C540094E35603E
:1003A00070BD000000380240007000400854400753
:1003B000003C024088ED00E0FFFFF6FE1030002414
:1003C0000024F4000000002000127A000400002045
:1003D00032490143324A1160704770B50021002351
:1003E0000F22C4781CB32E4C246804F4E064C4F5D6
:1003F000E064C4F30721C1F10404E3B20A41447884
:100400009C40E1B28478144021430C07210E254C16
:1004100005786155047804F01F050124AC40057887
:100420006D11AD0005F1E025C5F8004109E0047843
:1004300004F01F050124AC401B4D0678761145F8E9
:10044000264070BD194A0A400243154B1B1F1A6013
:10045000704739B1124A121D12680243104B1B1D1E
:100460001A6006E00E4A121D126882430C4B1B1DD7
:100470001A607047042808D14FF0E021096941F063
:1004800004014FF0E022116107E04FF0E02109691B
:1004900021F004014FF0E022116170470000FA05DD
:1004A0000CED00E000E400E080E100E080FFFF1FD1
:1004B00010B50121080201F0A6FB00214FF4807065
:1004C00001F0A1FB10BD30B50246002000235068AA
:1004D000F84C20400D790C6844EA05242043506014
:1004E0009068F54C2040D1E903542C438D682C438F
:1004F0004D7944EA450420439060D06A20F47000AE
:100500000C7D641EE4B2234340EA0350D06230BD48
:1005100000210160017141718160C16001610121AF
:10052000017570470021E54A1168E54A1140D0E99C
:1005300000231A4383681A43C3681A431143E14AEC
:10054000C2F8041370470021016041608160C160FE
:10055000704721B1826842F00102826003E0826844
:1005600022F00102826070470A4600214168D64BA2
:1005700019401143416070474162826270470A46E8
:100580000021416821F01F0111434160704738B1DB
:10059000CA49096841F40001CA4AC2F8041306E0D6
:1005A000C649096821F40001C64AC2F8041370471D
:1005B00038B1C249096841F48001C24AC2F8041343
:1005C00006E0BE49096821F48001BE4AC2F804135E
:1005D0007047F0B504460D4600200021092D11DDBD
:1005E000E068A5F10A0606EB4607072606FA07F1BA
:1005F0008843A5F10A0606EB460603FA06F108430E
:10060000E0600CE0206905EB4507072606FA07F1D4
:10061000884305EB450603FA06F108432061072AE3
:100620000FDA606B561E06EB86071F2606FA07F1E7
:100630008843561E06EB860605FA06F108436063FA
:1006400022E00D2A0FDA206BD61F06EB86071F2645
:1006500006FA07F18843D61F06EB860605FA06F16F
:100660000843206310E0E06AA2F10D0606EB86075E
:100670001F2606FA07F18843A2F10D0606EB86064F
:1006800005FA06F10843E062F0BD816841F080415F
:1006900081607047014600208A6802F080420AB1FA
:1006A000012000E00020704721B1826842F480629E
:1006B000826003E0826822F480628260704721B128
:1006C000826842F00202826003E0826822F0020245
:1006D0008260704710B50A4600210023416821F46A
:1006E0006041531E41EA4331416010BD21B142686F
:1006F00042F40062426003E0426822F40062426019
:1007000070470146C86C80B270476C48001D006895
:10071000704721B1826842F48072826003E082688F
:1007200022F480728260704721B1826842F40072C4
:10073000826003E0826822F400728260704738B100
:100740005E49096841F400515E4AC2F8041306E0AC
:100750005A49096821F400515A4AC2F804137047F3
:10076000F0B504461546002000220026092911DDB7
:10077000E068A1F10A0707EB470C072707FA0CF21C
:100780009043A1F10A0707EB470703FA07F210436A
:10079000E0600CE0206901EB410C072707FA0CF23E
:1007A000904301EB410703FA07F210432061A06B6D
:1007B000C0F30156EF1C06F1010CA7EB0C0707EB89
:1007C000870C1F2707FA0CF29043EF1C06F1010C6F
:1007D000A7EB0C0707EB870701FA07F21043A063AA
:1007E000F0BD10B50A4600210023816B21F44011B1
:1007F000531E41EA0351816310BD08B500230093E5
:100800000090009B0B440093009B1A6008BD0A46B1
:100810000021816821F470211143816070470A46EC
:100820000021816821F44011114381607047816883
:1008300041F4800181607047014600208A6802F41B
:1008400080020AB1012000E00020704721B1426817
:1008500042F48062426003E0426822F480624260B7
:10086000704721B1426842F48052426003E042681E
:1008700022F480524260704708B502460020009082
:10088000009201F12800009B184400900098006835
:1008900080B208BD10B50B460021D9B2012404FA7C
:1008A00001F11AB144680C43446002E044688C438F
:1008B000446010BDFFFEFFFCFDF7FFC004230140B4
:1008C000E030FCFF00200140FFFD3FFF024600201A
:1008D00013680B400BB1012000E000207047CA43B1
:1008E0000260704770B502460020002300240B12FE
:1008F000556801268E4005EA060415681D4015B1AD
:100900000CB1012000E0002070BD00220A12D34388
:1009100003607047016821F001010160002101605E
:1009200041608160C160016121214161DB498842F0
:1009300004D13D21D94A103A91608CE0D749183151
:10094000884205D14FF47461D44A103A916082E034
:10095000D2493031884205D14FF47411CF4A103A50
:10096000916078E0CD494831884205D14FF07461FB
:10097000CA4A103A91606EE0C8496031884204D199
:10098000C749C64A103AD16065E0C4497831884207
:1009900004D1C449C14A103AD1605CE0BF499031EA
:1009A000884204D1C049BD4A103AD16053E0BB49E6
:1009B000A831884205D14FF03D51B84A103AD16074
:1009C00049E0BA49884204D13D21B84A083A116049
:1009D00041E0B6491831884205D14FF47461B34AF9
:1009E000083A116037E0B1493031884205D14FF4FF
:1009F0007411AE4A083A11602DE0AC494831884282
:100A000005D14FF07461A94A083A116023E0A74963
:100A10006031884204D1A249A44A121F11601AE031
:100A2000A2497831884204D19E49A04A121F116020
:100A300011E09E499031884204D19B499B4A121F84
:100A4000116008E09949A831884204D14FF03D5126
:100A5000964A121F1160704710B500220268944B2D
:100A60001A40CC680B6823434C6923438C692343A9
:100A7000CC6923430C6A23434C6A23438C6A234387
:100A80004C6B23438C6B23431A430260426922F070
:100A90000702D1E90B3423431A4342610B694360D7
:100AA0004B6883608B68C36010BD002101604160AA
:100AB0008160C160016141618161C1610162416226
:100AC0008162C162016341638163704721B1026841
:100AD00042F00102026003E0026822F001020260BB
:100AE000704721B1026842F40042026003E00268EC
:100AF00022F400420260704721B1026842F02002F5
:100B0000026003E0026822F0200202607047416048
:100B100070470146486880B2704722B1036843F4C9
:100B20000023036003E0036823F4002303600161F2
:100B3000704721B1026842F48022026003E002683B
:100B400022F48022026070470AB1016100E0C160B6
:100B50007047014600200A6802F400220AB1012011
:100B600000E000207047014600200A6802F0010200
:100B70000AB1012000E000207047014600204A69C8
:100B800002F03800704730B503460A4600200024C2
:100B9000464DAB4202D24149103901E04349103978
:100BA00002F000550DB14C6800E00C68414D2C403E
:100BB00004EA02050DB1012000E0002030BD02462C
:100BC0003A4B9A4202D23548103801E03748103883
:100BD00001F000531BB1374B0B40C36002E0354BB3
:100BE0000B408360704710B501F080034BB122B118
:100BF000436943F08003436103E0436923F08003CA
:100C0000436180290BD02AB1036801F01E042343FD
:100C1000036004E0036801F01E04A343036010BDF9
:100C200070B50246002000240025204EB24202D2B8
:100C30001A4B103B01E01D4B103B1F4E0E4036B1CE
:100C40001E2606EAD124166806EA040502E0566963
:100C500006F0800501F000560EB15C6800E01C68EB
:100C6000144E344004EA010616B10DB1012000E033
:100C7000002070BD02460D4B9A4202D20748103840
:100C800001E00A48103801F000531BB1094B0B403A
:100C9000C36002E0074B0B40836070471060024066
:100CA0003D000020400F002000003D201064024065
:100CB0003F801CF07D0F7D0F3C0F3C0F0020414911
:100CC0000860091D0860091D0860091D08603E488C
:100CD0003C4914310860704700213A498279002A62
:100CE0003AD00A46126803689A430B461A600A1DF6
:100CF000126803689A430B1D1A60027911440A684E
:100D000003681A430A602F4A0832126803689A433C
:100D10002C4B08331A601A1D126803689A43294B3A
:100D20000C331A604279102A0ED11A1F1268036818
:100D30001A43244B08331A601A1D126803681A43B9
:100D4000204B0C331A600DE01E49427911440A68A9
:100D500003681A430A6005E0027911440A680368CF
:100D60009A430A6070470021016001710C214171B2
:100D70000021817170471349103109680143114AFC
:100D8000103211607047014600200E4A143212687A
:100D90000A400AB1012000E00020704709491431DF
:100DA0000860704701460020064A143212680A4063
:100DB0000AB1012000E000207047024914310860A8
:100DC00070470000003C0140FFFF7F0030B943F254
:100DD000DB028100A1F1C0410A6005E043F2D202CA
:100DE0008100A1F1C0410A606FF07042411C89008E
:100DF000A1F1C0410A608100A1F1C041C1F8042104
:100E0000704730B50021002200230468A400A4F13B
:100E1000C0442168FE4C2140D0E901452C43C568FF
:100E20002C4305692C4345692C4385692C43C569CE
:100E30002C43056A2C43456A2C43856A2C43C56ABA
:100E40002C43056B2C4321430468A400A4F1C04447
:100E500021608468082C0BD10468A400A4F1C0446C
:100E6000246844F040050468A400A4F1C04425604F
:100E70000468641CA400A4F1C044226802F040424B
:100E8000446B2468456B6D6844EA0514456BAD6896
:100E900044EA0524456BAD8944EA0544456B2D8A37
:100EA00044EA0554456B2D7D44EA0564456BAD6904
:100EB0002C4322430468641CA400A4F1C0442260B3
:100EC000C46AB4F5804F20D10468A400A4F1C044E2
:100ED000D4F80431CF4C2340846B2468856B6D6853
:100EE00044EA0514856BAD6844EA0524856BAD8939
:100EF00044EA0544856BAD692C4323430468A40090
:100F0000A4F1C044C4F8043107E06FF070450468F0
:100F1000A400A4F1C044C4F8045130BD0021016014
:100F20000221416000218160C160016141618161F4
:100F3000C16101624FF48051416249008162002128
:100F4000C1620163B44941638163704751B182005A
:100F5000A2F1C042126842F001038200A2F1C04235
:100F6000136009E08200A2F1C0421268AB4B1A4044
:100F70008300A3F1C0431A60704710280AD11821DA
:100F80004FF020421166402151664FF0FC319166CE
:100F9000D16610E01821A24A116040214FF0204292
:100FA000C2F884104FF0FC319D4A083211604FF0B6
:100FB0002042C2F88C10704730B500210022002377
:100FC0000468102C03D14FF02044216E01E0944CB2
:100FD0002168944C2140446844F0080485682C43FF
:100FE000C5682C4305692C43456944EA4524856955
:100FF00044EA453421430468102C03D14FF02044C7
:10100000A26E02E0864C083422680022C46924687B
:10101000C5696D6844EA0524C5692D8944EA05441B
:10102000C5692D7B44EA056422430468102C03D172
:101030004FF02044E36E02E04FF02044E36E0023C3
:10104000046A2468056A6D6844EA0524056A2D89E6
:1010500044EA0544056A2D7B44EA05642343046899
:10106000102C05D14FF020442166A266E36608E00B
:101070006B4C21604FF02044C4F88820684C0C343D
:10108000236030BD10210160002141608160C1609A
:10109000016141618161FC21C2691160C2695160D5
:1010A000C2699160C269D160026A1160026A5160CE
:1010B000026A9160026AD160704799B1102808D124
:1010C0004FF02042126E42F004024FF020431A66A5
:1010D0001DE0534A126842F004024FF02043C3F867
:1010E000802014E0102809D14FF02042126E4B4BA3
:1010F000DB1E1A404FF020431A6608E0484A126887
:10110000464BDB1E1A404FF02043C3F88020704747
:1011100099B1102808D14FF02042126E42F04002DF
:101120004FF020431A661DE03D4A126842F040022B
:101130004FF02043C3F8802014E0102809D14FF06D
:101140002042126E354B3F3B1A404FF020431A6647
:1011500008E0334A1268314B3F3B1A404FF02043BE
:10116000C3F88020704701460020102903D14FF0BA
:101170002042506F02E02A4A14321068704718204B
:1011800027492031086000200906C1F8A4004FF06B
:10119000FC30234928310860091D0860091D0860DA
:1011A000704770B500210022002300241C4D20351B
:1011B00029681D4D2940056845F01005466845EA37
:1011C0004625866845EA463529434FF02045C5F84F
:1011D000A010134D28352A680022C5682D68C668FE
:1011E000766845EA0625C668368945EA0645C66832
:1011F000367B45EA06652A434FF02045C5F8A8200E
:10120000074D2C352B68002305692D6806690DE014
:101210008000F7FF0000F0CF64890008FEFF0F0098
:10122000800000A08101F0FFCD01FEFF766845EA55
:1012300006250669368945EA06450669367B45EA8C
:1012400006652B434FF02045C5F8AC30824D2C6825
:10125000002445692D684669766845EA0625466991
:10126000368945EA06454669367B45EA06652C43DC
:101270004FF02045C5F8B04070BD002101604160CD
:101280008160FC21C2681160C2685160C2689160CF
:10129000C268D1600269116002695160026991609F
:1012A0000269D1604269116042695160426991608E
:1012B0004269D160704748B167491039096841F007
:1012C00004014FF02042C2F8A01008E06249103932
:1012D0000968624A11404FF02042C2F8A0107047DE
:1012E00010B5F2B1102807D14FF020435B6E0B43CD
:1012F0004FF02044636632E0B0F5807F08D1564B52
:101300002C3B1B680B434FF02044C4F8843026E08C
:10131000514B0C3B1B680B434FF02044C4F8A430E6
:101320001DE0102807D14FF020435B6E8B434FF038
:101330002044636613E0B0F5807F08D1464B2C3B18
:101340001B688B434FF02044C4F8843007E0424BC5
:101350000C3B1B688B434FF02044C4F8A43010BDF5
:1013600010B5024600200023102A03D14FF020447C
:10137000636E09E0B2F5807F03D1374C2C3C2368C3
:1013800002E0354C0C3C236803EA01040CB1012057
:1013900000E0002010BD102807D14FF02042526E0F
:1013A0008A434FF020435A6613E0B0F5807F08D19E
:1013B000294A2C3A12688A434FF02043C3F884200C
:1013C00007E0254A0C3A12688A434FF02043C3F8DD
:1013D000A420704770B50246002000230024002599
:1013E000102A03D14FF02046736E09E0B2F5807FDA
:1013F00003D1194E2C3E336802E0174E0C3E336881
:1014000003EA010403EAD10514B10DB1012000E0A3
:10141000002070BD102808D14FF02042526E22EA01
:10142000D1024FF020435A6615E0B0F5807F09D114
:10143000094A2C3A126822EAD1024FF02043C3F83D
:10144000842008E0044A0C3A126822EAD1024FF0E4
:101450002043C3F8A4207047B00000A0FBFF0F009A
:1014600010B504469848844208D10121084600F08E
:1014700086FB0021012000F082FB76E09348844245
:1014800008D10121022000F07AFB0021022000F0A7
:1014900076FB6AE08E48844208D10121042000F0E6
:1014A0006EFB0021042000F06AFB5EE08948844264
:1014B00008D10121082000F062FB0021082000F083
:1014C0005EFB52E08448844208D10121102000F0E4
:1014D00056FB0021102000F052FB46E07F4884427A
:1014E00008D10121202000F04AFB0021202000F03B
:1014F00046FB3AE07A48844208D10121402000F0BE
:101500003EFB0021402000F03AFB2EE0754884426B
:1015100008D10121802000F032FB0021802000F062
:101520002EFB22E07048844208D10121801500F092
:1015300026FB0021A01500F022FB16E06B48844238
:1015400008D10121401500F01AFB0021601500F0C0
:1015500016FB0AE06648844207D10121001500F01D
:101560000EFB0021201500F00AFB10BDF0B50A4665
:1015700000210023002400BF3DE0012505FA01F30E
:10158000156805EA03049C4234D105684F00032620
:10159000BE40B543056015794E00B5400668354339
:1015A00005601579012D02D01579022D16D18568B7
:1015B0004F000326BE40B543856055794E00B540C7
:1015C000866835438560456801268E40B543456091
:1015D000456896798E40B6B235434560C5684F0080
:1015E0000326BE40B543C560D5794E00B540C668F8
:1015F0003543C560491C1029BFD3F0BD4FF6FF71BC
:1016000001600021017141718171C171704708B59C
:101610004FF480320092009A0A430092009AC2610D
:10162000C161009AC261C2690092C269009208BD9C
:101630000246002013690B400BB1012000E000209E
:1016400070470146086980B270470246002053691E
:101650000B400BB1012000E00020704701464869B3
:1016600080B2704701837047418370470AB101839C
:1016700000E0418370474161704742694A404261DE
:101680007047F0B5002300244D07ED0E02FA05F374
:10169000CE1000F1200555F826504E07F70E0F2604
:1016A000BE40B543CF1000F1200646F82750CE10BB
:1016B00000F1200555F8265045EA0304CE1000F14C
:1016C000200545F82640F0BD00000240000402401D
:1016D00000080240000C02400010024000140240CA
:1016E00000180240001C024000200240002402407A
:1016F00000280240F948006840F00100F7490860FE
:101700000020F64908310860F4480068F4490840B0
:10171000F2490860F348091D0860F348EF49843135
:101720000860F0481038091D0860EC48006820F493
:101730008020EA4908600020E8490C310860E74948
:101740008C31086070470021E44A921C11701146E8
:101750000870704710B501460022002300204A118E
:10176000012A02D1DD4C236808E0022A03D1DB4CB8
:101770007034236802E0D94C7434236801F01F02EE
:10178000012494401C400CB1012000E0002010BD59
:1017900038B5002000900024002500BF3120FFF75D
:1017A000D9FF05460098401C00900098B0F5A04F66
:1017B00001D0002DF2D03120FFF7CCFF08B1012479
:1017C00000E00024204638BD01460020C34A1068CE
:1017D00020F0F80040EAC10010607047C34908607B
:1017E00070470021BD4A703211701170012802D07B
:1017F00004280AD104E00121B84A7032117005E0D2
:101800000521B64A7032117000E000BF00BF70477A
:10181000B7490860704770B5049C41EA82150126FB
:10182000C6EB530645EA0645054345EA0465AB4E5B
:10183000361D356070BDAD4908667047820142EAC9
:101840000172A64B84331A607047A84988667047B6
:1018500010B5830143EA016343EA02739F4C883465
:10186000236010BDA14908677047A049C86470474C
:1018700002460020994B0833186820F0EC6042EAD9
:1018800001031843954B0833186070470246002047
:10189000924B0833186820F0784042EA010318435D
:1018A0008E4B083318607047014600208B4A08327F
:1018B000106820F003000843106070478748083024
:1018C000006800F00C00704701460020834A08328F
:1018D000106820F0F00008431060704701460020B7
:1018E0007E4A0832106820F4E050084310607047C8
:1018F00001460020794A0832106820F4604040EA2E
:10190000C10010607047F0B50021002200240225BC
:1019100000260223714F08373F6807F00C0121B100
:10192000042905D0082937D105E0724F076036E059
:10193000714F076033E0694F3F1D3F68C7F3805622
:10194000664F3F1D3F6807F03F036EB16A4FB7FB1C
:10195000F3F7DFF888C10CF1040CDCF800C0CCF31D
:10196000881C07FB0CF40CE0624FB7FBF3F7DFF8C1
:101970006CC10CF1040CDCF800C0CCF3881C07FB34
:101980000CF4564F3F1D3F68C7F301477F1C7D0095
:10199000B4FBF5F7076002E0564F076000BF00BFD9
:1019A0004E4F08373F6807F0F0010909534F7A5C42
:1019B0000768D7404760494F08373F6807F4E05150
:1019C000890A4E4F7A5C4768D7408760434F083793
:1019D0003F6807F46041490B484F7A5C4768D7403D
:1019E000C760F0BD002100F44072B2F5407F0AD11B
:1019F0003A4A0832116821F4F811414A0240114371
:101A0000364A08321160354A70321268C0F30B034F
:101A10001A43324B70331A607047354944390860B5
:101A2000704733494039086070473649086070474D
:101A300001460020294A8C32106820F440100843E7
:101A40001060704701460020244A8C32106820F450
:101A50004000084310607047014600201F4A8C3246
:101A6000106820F01F004A1E10431C4A8C32106080
:101A7000704701460020194A8C32106820F4F85053
:101A80004A1E40EA0220154A8C3210607047014617
:101A90000020124A8C32106820F440300843106055
:101AA000704719490860704739B10C4A30321268E2
:101AB00002430A4B30331A6006E0084A303212689B
:101AC0008243064B30331A607047F9B1034A34320F
:101AD00012680243014B34331A601CE000380240A4
:101AE000FFFFF6EA103000240030002000004742DB
:101AF000800E47420024F40000127A0014000020F7
:101B0000FFFCFF0F5C014742E01147428F4A126819
:101B100082438E4B1A60704739B18C4A121D12688D
:101B200002438A4B1B1D1A6006E0884A121D126888
:101B30008243864B1B1D1A60704739B1834A0C32B1
:101B400012680243814B0C331A6006E07F4A0C3264
:101B5000126882437D4B0C331A60704739B17B4A5F
:101B6000103212680243794B10331A6006E0774A4C
:101B7000103212688243754B10331A60704739B1C6
:101B8000724A243A12680243704B243B1A6006E002
:101B90006E4A243A126882436C4B243B1A607047A9
:101BA00039B16A4A203A12680243684B203B1A60F6
:101BB00006E0664A203A12688243644B203B1A6072
:101BC000704739B1614A1C3A126802435F4B1C3BB3
:101BD0001A6006E05D4A1C3A126882435B4B1C3B6C
:101BE0001A60704739B1594A143A12680243574B88
:101BF000143B1A6006E0554A143A12688243534B6C
:101C0000143B1A60704739B1504A103A12680243C7
:101C10004E4B103B1A6006E04C4A103A1268824361
:101C20004A4B103B1A60704739B1484A1C3212685F
:101C30000243464B1C331A6006E0444A1C321268C9
:101C40008243424B1C331A60704739B13F4A2032FD
:101C5000126802433D4B20331A6006E03B4A2032B3
:101C600012688243394B20331A60704739B1374AC2
:101C7000243212680243354B24331A6006E0334A9B
:101C8000243212688243314B24331A60704739B1D1
:101C90002E4A2C32126802432C4B2C331A6006E079
:101CA0002A4A2C3212688243284B2C331A60704720
:101CB00039B1264A303212680243244B30331A605D
:101CC00006E0224A303212688243204B30331A60D9
:101CD0007047012808D11D493C31096841F00801CD
:101CE0001A4A3C32116007E018493C31096821F07A
:101CF0000801164A3C321160704739B1134A273A3D
:101D000012780243114B273B1A7006E00F4A273A1C
:101D1000127882430D4B273B1A7070470B484030B6
:101D2000006840F080700949403108607047014602
:101D30000020064A283A12680A400AB1012000E051
:101D40000020704701492639087070473438024036
:101D500010B501218803FFF756FF00214FF48040A2
:101D6000FFF751FF10BD1C49086070471B4908620E
:101D7000704730B500228B071C0F0F2303FA04F2C3
:101D8000154B08338C1053F824309343124C08340D
:101D90008D1044F8253023468C1053F824308C07DE
:101DA000240F00FA04F423430B4C08348D1044F83C
:101DB000253030BD0949DC310860704708490860AA
:101DC0007047002004492031096801F4807109B18D
:101DD000012000E000207047003801400000274249
:101DE0000004274210B50446FE48844208D1012170
:101DF0000846FFF708FF00210120FFF704FF9DE0E0
:101E0000B4F1804F08D101210846FFF7EBFE002115
:101E10000120FFF7E7FE91E0F348844208D1012159
:101E20000220FFF7DFFE00210220FFF7DBFE85E046
:101E3000EE48844208D101210420FFF7D3FE00219F
:101E40000420FFF7CFFE79E0E948844208D1012160
:101E50000820FFF7C7FE00210820FFF7C3FE6DE052
:101E6000E448844208D101211020FFF7BBFE002185
:101E70001020FFF7B7FE61E0DF48844208D101215E
:101E80002020FFF7AFFE00212020FFF7ABFE55E03A
:101E9000DA48844208D101210220FFF7B4FE002174
:101EA0000220FFF7B0FE49E0D548844209D1012164
:101EB0000804FFF7A8FE00214FF48030FFF7A3FECF
:101EC0003CE0D048844209D101214804FFF79BFE41
:101ED00000214FF40030FFF796FE2FE0CA488442FD
:101EE00009D101218804FFF78EFE00214FF48020E4
:101EF000FFF789FE22E0C548844208D10121402035
:101F0000FFF770FE00214020FFF76CFE16E0C0488E
:101F1000844208D101218020FFF764FE0021802047
:101F2000FFF760FE0AE0BB48844207D1012180151B
:101F3000FFF758FE0021A015FFF754FE10BD002248
:101F40000288A84B98420ED0AC4B98420BD0B0F10F
:101F5000804F08D0A44B984205D0A44B984202D0A1
:101F6000A34B984204D14FF68F731A404B881A4303
:101F7000A04B984207D0A04B984204D04FF6FF43A5
:101F80001A400B891A4302804B68C3620B88038591
:101F9000944B984202D0994B984201D18B7A038698
:101FA0000123838270474FF0FF314160002101809F
:101FB00001814180817270470185828270470A46A3
:101FC000002101884FF68F7319401143018070473B
:101FD00041627047C16270470146486A70470146D6
:101FE000088D704721B1028842F00202028004E0AD
:101FF00002884FF6FD731A400280704721B10288B3
:1020000042F00402028004E002884FF6FB731A409B
:102010000280704721B1028842F08002028004E011
:1020200002884FF67F731A400280704702884FF68D
:10203000F7731A40028002880A43028070470288C0
:102040004FF6FF431A40028002880A43028070471D
:1020500021B1028842F00102028004E002884FF6BA
:10206000FE731A400280704770B5002400220023DE
:10207000058C4FF6FE7635400584028C8388048BF0
:102080004FF68F752C40B51E2C400D882C43751EC5
:102090002A408D892A434D882A43524DA84202D0B6
:1020A000564DA84213D14FF6F7752A40CD892A43E1
:1020B0004FF6FB752A408D882A434FF6FF652B406B
:1020C0004FF6FF552B400D8A2B434D8A2B438380BF
:1020D00004838D684563028470BD70B500240022BE
:1020E0000023058C4FF6EF7635400584028C8388FB
:1020F000048B48F6FF752C404FF6FF452C400D88A9
:102100004FF6FF7606EA05252C434FF6DF752A4089
:102110008D8906EA05152A434D8806EA05152A43E6
:10212000304DA84202D0354DA8421DD14FF67F75E3
:102130002A40CD894FF6FF7606EA05152A434FF669
:10214000BF752A408D8806EA05152A434FF6FF35EC
:102150002B404FF2FF752B400D8A06EA85052B4375
:102160004D8A06EA85052B43838004838D68856349
:10217000028470BD70B5002400220023058C4FF648
:10218000FF6635400584028C8388848B4FF68F75FB
:102190002C404FF6FC752C400D882C434FF6FF5514
:1021A0002A408D894FF6FF7606EA05252A434D8899
:1021B00006EA05252A430B4DA84202D00F4DA8423E
:1021C00038D14FF2FF752A40CD894FF6FF7606EAE7
:1021D00005252A434FF6FF352A408D8806EA052556
:1021E0002A4319E0000001400004004000080040BC
:1021F000000C0040001000400014004000040140AA
:1022000000400140004401400048014000180040E7
:10221000001C0040002000404EF6FF752B404DF69C
:10222000FF752B400D8A06EA05152B434D8A06EAF9
:1022300005152B43838084838D68C563028470BD3C
:1022400070B5002200230024058C4EF6FF76354041
:102250000584038C8488828B48F6FF752A404FF6EC
:10226000FF452A400D884FF6FF7606EA05252A43EA
:102270004DF6FF752B408D8906EA05352B434D88B9
:1022800006EA05352B43FE4DA84202D0FD4DA8427B
:1022900008D14BF6FF752C400D8A4FF6FF7606EA03
:1022A00085152C43848082838D680564038470BD0A
:1022B000002101804180818081608181C181018212
:1022C0004182704770B5034600200024184618303C
:1022D00001258D40ACB21D8CA5431D8409B1082990
:1022E0000AD100EB610005684FF68F763540056036
:1022F0000568154305600FE00D1FC5F34E05284422
:10230000056848F6FF763540056005684FF6FF76AC
:1023100006EA02263543056070BD4163704781635C
:102320007047C1637047016470470A460021018B02
:102330004FF68F7319401143018370470A460021FD
:10234000018B48F6FF7319404FF6FF7303EA02232F
:102350001943018370470A460021818B4FF68F7322
:1023600019401143818370470A460021818B48F64A
:10237000FF7319404FF6FF7303EA02231943818369
:1023800070470A460021018B4FF6F773194011433D
:10239000018370470A460021018B4FF2FF731940F9
:1023A0004FF6FF7303EA02231943018370470A467D
:1023B0000021818B4FF6F7731940114381837047D9
:1023C0000A460021818B4FF2FF7319404FF6FF73CD
:1023D00003EA02231943818370470A460021018BD7
:1023E0004FF6FB7319401143018370470A460021E1
:1023F000018B4FF6FF3319404FF6FF7303EA0223B8
:102400001943018370470A460021818B4FF6FB7305
:1024100019401143818370470A460021818B4FF692
:10242000FF3319404FF6FF7303EA022319438183F8
:1024300070470A460021018B4FF67F731940114304
:10244000018370470A460021018BC1F30E014FF64C
:10245000FF7303EA02231943018370470A460021F0
:10246000818B4FF67F7319401143818370470A4671
:102470000021818BC1F30E014FF6FF7303EA0223A3
:102480001943818370470A460021018C4FF6FD7382
:1024900019401143018470470A460021018C4FF610
:1024A000F77319401143018470470A460021018CDB
:1024B0004FF6DF7319404FF6FF7303EA0213194317
:1024C000018470470A460021018C4FF67F73194042
:1024D0004FF6FF7303EA02131943018470470A465B
:1024E0000021018C4FF6FF5319404FF6FF7303EAAA
:1024F00002231943018470470A460021018C4FF2E0
:10250000FF7319404FF6FF7303EA02231943018456
:1025100070470A460021018C4DF6FF7319404FF6B3
:10252000FF7303EA023319430184704730B5002377
:1025300001248C40A3B2048C9C430484048C02FAD2
:1025400001F5ADB22C43048430BD30B50023042422
:102550008C40A3B2048C9C430484048C02FA01F5E1
:10256000ADB22C43048430BD828B4FF2FF331A404E
:102570008283828B4FF6FF7303EA01231A4382831F
:102580007047F0B50C461546002100220026078C46
:102590004EF6FF7C07EA0C070784818B028C4FF60E
:1025A000FF7707EA043640F6FF4739404FF6FF77DA
:1025B00007EA052739434FF6FF7707EA0337394320
:1025C00045F6FF773A4046F480573A4381830284C8
:1025D000F0BD828B4FF6F3731A408283828B0A43DD
:1025E00082837047F0B50C46154600210022002674
:1025F000078C4FF6FF6C07EA0C070784818B028C6F
:102600004FF6FF7707EA04264FF60C7739404FF66E
:10261000FF7707EA03172F4339434FF2FF573A403A
:1026200046F480773A4381830284F0BD028B4FF2F7
:10263000FF331A400283028B4FF6FF7303EA012334
:102640001A4302837047F0B50C461546002100225C
:102650000026078C4FF6EF7C07EA0C070784018BF6
:10266000028C4FF6FF7707EA041640F6FF47394021
:102670004FF6FF7707EA033739434FF6FF7703E05A
:10268000000001400004014007EA052739434FF6E6
:102690005F773A4046F010073A4301830284F0BD69
:1026A000028B4FF6F3731A400283028B0A430283B4
:1026B0007047F0B50C46154600210022068C4FF6F7
:1026C000FE773E400684018B028C4FF60C7631403B
:1026D0007E1C06EA03162E4331434FF6F576324050
:1026E00044F00106324301830284F0BD70B5054613
:1026F0000C46208850B92389A28861882846FFF7B4
:10270000D8FFE1882846FFF7CBFF25E02088042882
:102710000AD12389A28861882846FFF794FFE188BF
:102720002846FFF783FF17E0208808280AD123896D
:10273000A28861882846FFF755FFE1882846FFF701
:1027400048FF09E02389A28861882846FFF719FF1E
:10275000E1882846FFF708FF70BD00210180418015
:10276000012181800021C180018170472DE9F04164
:1027700005460C4600260127608808B9022600E0BD
:102780000026A088012801D1022700E00127208827
:10279000A0B92389A28861882846FFF78AFFE188CB
:1027A0002846FFF77DFF23893A4631462846FFF742
:1027B0004AFFE1882846FFF739FF13E02389A28802
:1027C00061882846FFF73FFFE1882846FFF72EFF84
:1027D00023893A4631462846FFF76BFFE1882846B1
:1027E000FFF75EFFBDE8F0810146486B7047014688
:1027F000886B70470146C86B70470146086C70478C
:102800000A884B881A438B881A43CB881A430B8952
:102810001A434B891A438B891A43A0F84420704706
:102820000021018041808180C180018141818181BD
:10283000704731B1B0F8442042F40042A0F844207F
:1028400005E0B0F84420C2F30E02A0F8442070471F
:1028500021B1828842F00402828004E082884FF62F
:10286000FB731A408280704721B1828842F00102D6
:10287000828004E082884FF6FE731A40828070479F
:102880001AB183890B43838102E083898B4383815F
:1028900070478182704702460020138A0B400BB1BB
:1028A000012000E000207047CA430282704730B523
:1028B0000246002000230024158A05EA01039589B9
:1028C00005EA010413B10CB1012000E0002030BD85
:1028D000CA430282704741EA0203A0F848307047B9
:1028E0001AB183890B43838102E083898B438381FF
:1028F000704721B1828842F00802828004E0828819
:102900004FF6F7731A408280704701894FF6F872CC
:102910001140018170470A46002101894FF68F73EB
:10292000194011430181704730B504460D462946D0
:102930002046FFF7F0FF208940F00700208130BDDE
:102940002DE9F04104460D4616461F46602D06D17E
:102950003B46012231462046FFF775FE05E03B4627
:10296000012231462046FFF7A4FE29462046FFF704
:10297000D2FF208940F007002081BDE8F08130B50A
:102980000C4600210189C9B24FF6FF7505EA0325FF
:10299000154325432943018130BD2DE9F04105460A
:1029A0000E4617469846002443463A463146284686
:1029B000FFF7E5FF2C894FF6F870044044F0070458
:1029C0004FF68F70044044F070042C81BDE8F08114
:1029D000F0B504460D4616461F463B46324629468C
:1029E0002046FFF7CCFF208940F480402081F0BDD5
:1029F00082884FF68F731A40828082880A438280D1
:102A0000704702894FF6F8731A40028102890A431F
:102A10000281704702894FF67F731A400281028952
:102A20000A4302817047F0B50C4615461E46002148
:102A3000002200230189028B038C4FF6F87739407E
:102A400021434FF6FC473A4040F201173A434FF614
:102A5000DD773B404FF6FF7707EA06172F433B43EE
:102A6000018102830384F0BD21B1828842F080029B
:102A7000828004E082884FF67F731A40828070471C
:102A8000A0F850107047000010B50446FA48844280
:102A900008D101211020FFF7B6F800211020FFF720
:102AA000B2F857E0F548844209D101214804FFF704
:102AB00099F800214FF40030FFF794F84AE0F0480D
:102AC000844209D101218804FFF78CF800214FF4DA
:102AD0008020FFF787F83DE0EA48844209D10121D0
:102AE000C804FFF77FF800214FF40020FFF77AF8C1
:102AF00030E0E548844209D101210805FFF772F86A
:102B000000214FF48010FFF76DF823E0DF48844286
:102B100008D101212020FFF776F800212020FFF7BF
:102B200072F817E0DA48844209D101218807FFF7DB
:102B300059F800214FF08040FFF754F80AE0D548DB
:102B4000844207D101214005FFF74CF800216005C0
:102B5000FFF748F810BD2DE9FF4705460E46002453
:102B6000A14600BFA046B08900B100BF2C8A24F462
:102B70004054F08804432C82AC8941F20C608443B9
:102B8000B08831890843718908430443AC81AC8A19
:102B900024F44074B0890443AC826846FEF7B3FE67
:102BA000B548854202D0B948854202D1DDF80C9083
:102BB00001E0DDF80890A88900F4004040B109EB7D
:102BC000C90000EB091031684900B0FBF1F707E0DC
:102BD00009EBC90000EB091031688900B0FBF1F77F
:102BE0006420B7FBF0F004012009642101FB107898
:102BF000A88900F4004040B1322000EBC800B0FBCF
:102C0000F1F000F00700044308E0322000EB081068
:102C10006421B0FBF1F000F00F0004432C81BDE80B
:102C2000FF874FF41651016000218180C18001812E
:102C30000C21418100218181704710B5024600209E
:102C4000108A20F470600B884C8823438C882343BF
:102C5000CC8823431843108210BD0021018041809D
:102C60008180C180704721B1828942F40052828103
:102C700004E082894DF6FF731A4082817047028B0F
:102C800002F47F420283028B0A430283704721B120
:102C9000828942F40042828103E08289C2F30E02FB
:102CA0008281704721B1828A42F40062828204E00C
:102CB000828A4FF2FF731A4082827047C1F3080282
:102CC0008280704701468888C0F308007047028AF6
:102CD0004FF6F0731A400282028A0A43028270475A
:102CE00021B1828942F00202828104E082894FF69A
:102CF000FD731A408281704782894FF2FF731A4038
:102D0000828182890A4382817047028A4FF6DF738B
:102D10001A400282028A0A430282704721B1028A63
:102D200042F48042028204E0028A4BF6FF731A40AA
:102D300002827047818941F001018181704721B190
:102D4000828A42F00802828204E0828A4FF6F77398
:102D50001A4082827047028BD2B20283028B42EA0F
:102D600001220283704721B1828A42F020028282CE
:102D700004E0828A4FF6DF731A408282704721B1E5
:102D8000828A42F01002828204E0828A4FF6EF7358
:102D90001A4082827047828A4FF6FB731A40828201
:102DA000828A0A438282704721B1828A42F00202FB
:102DB000828204E0828A4FF6FD731A408282704755
:102DC0001AB1838A0B43838202E0838A8B43838216
:102DD0007047F0B50346002400260025002040F689
:102DE0006A17B94200D100BF1846C1F3421401F07E
:102DF0001F06012707FA06F5012C01D10C3004E06B
:102E0000022C01D1103000E014301AB107682F43B2
:102E1000076002E00768AF430760F0BD024600208C
:102E2000B1F5007F00D100BF13880B400BB101202A
:102E300000E00020704701F40072B2F5007F00D17D
:102E400000BFCA430280704770B5024600240023C9
:102E50000025002040F66A16B14200D100BFC1F340
:102E6000421501F01F03012606FA03F3012D13D1C9
:102E70009689334017E000000010014000440040F4
:102E800000480040004C0040005000400014014049
:102E900000780040007C0040022D02D1168A3340A9
:102EA00001E0968A33400C12012606FA04F41688D3
:102EB000344013B10CB1012000E0002070BD10B50A
:102EC0000022002340F66A14A14200D100BF0A127A
:102ED00001249440A3B2DC43048010BD10B5044625
:102EE000FB48844208D101218014FEF78CFE0021AA
:102EF000A014FEF788FE3CE0F648844208D1012188
:102F00000014FEF76FFE00212014FEF76BFE30E088
:102F1000F148844208D10121C013FEF763FE00216D
:102F2000E013FEF75FFE24E0EC48844208D1012163
:102F30004014FEF768FE00216014FEF764FE18E0FE
:102F4000E748844209D101210805FEF75CFE002113
:102F50004FF48010FEF757FE0BE0E248844208D1A0
:102F600001214805FEF74FFE00214FF40010FEF747
:102F70004AFE10BD10B50022028802F441520B88AF
:102F80004C8823438C882343CC8823430C892343D8
:102F90004C8923438C892343CC8923431A430280E1
:102FA000838B4FF2FF74234083830B8A038210BD0F
:102FB0002DE9F04F0025022300244FF001090022E3
:102FC0000026002794469046B0F81CA04FF2400B14
:102FD0000AEA0B0AA0F81CA04FF0020AA0F820A0F1
:102FE000858BD1F808A0BAF1020F01D100BF82E0B1
:102FF000B1F804A0BAF1000F02D14FF0010901E0CD
:103000004FF00209DFF8E0A2DAF800A00AF4000AA3
:10301000BAF1000F09D0DFF8D0A2DAF800A02AF444
:10302000000ADFF8C4B2CBF800A0DFF8BCA20AF1B6
:103030007C0ADAF800A0CAF3881CDFF8ACA20AF117
:103040007C0ADAF800A0CAF30278DFF89CA2AAF1A1
:10305000040ADAF800A00AF03F07DFF88CA2AAF110
:10306000040ADAF800A00AF4800ABAF5800F08D141
:10307000DFF878A2BAFBF7FA0AFB0CFABAFBF8F60B
:1030800007E0DFF86CA2BAFBF7FA0AFB0CFABAFB0E
:10309000F8F6B1F806A0BAF5007F0ED14FEA162A6D
:1030A0000AEB8A0A4FEA4A0AD1F808B0BAFBFBFADF
:1030B0000AF1050A1FFA8AF20FE04FEA491AB6FB35
:1030C000FAFA0AEB8A0A4FEA4A0AD1F808B0BAFBC0
:1030D000FBFA0AF1050A1FFA8AF24FF00A0AB2FB5C
:1030E000FAF202F00104A2EB040ACAF34F034FF60E
:1030F000FF7A0AEA0424022B01DBFF2B01DD022305
:103100000024B1F806A04AEA040A4AEA030AA0F831
:1031100020A0B1F804A0B1F80CB04AEA0B0AB1F84B
:1031200002B04AEA0B0AB1F800B04AEA0B0A4AF4C4
:10313000006A4AEA05058583BDE8F08F0021018019
:1031400041808180C180018141818181C1810721CC
:10315000018270470021018041808180C18002216D
:10316000816000218181704721B1028842F04002D4
:10317000028004E002884FF6BF731A400280704755
:1031800021B1828B42F48062828304E0828B4FF60D
:10319000FF331A408283704702884FF2FF731A4050
:1031A000028002880A4302807047B1F5804F04D143
:1031B000028842F48042028004E002884BF6FF73EA
:1031C0001A40028070474FF6FF62914204D0028895
:1031D00042F48072028004E002884FF6FF631A40D6
:1031E0000280704721B1828842F00402828004E0AC
:1031F00082884FF6FB731A408280704721B1828823
:1032000042F01002828004E082884FF6EF731A4089
:103210008280704730B500220023848B4FF2400536
:103220002C40848302240484828B0C88B4F5007FB4
:1032300001D00C8814B94FF4807308E00C88B4F501
:10324000407F03D00C88B4F5807F00D100238C88A8
:103250008D892C434D882C431C4344F40064224345
:10326000828330BD0146888970478181704721B1D2
:10327000028842F40052028004E002884DF6FF7397
:103280001A4002807047018841F4805101807047E4
:1032900002460020012901D0108B00E0908A70477F
:1032A0000146088A70471AB183880B43838002E085
:1032B00083888B438380704730B5002400230C1132
:1032C0000125A540ABB2AAB185881D43858014E0D5
:1032D0000030014000380040003C00400034014014
:1032E00000500140005401400838024000127A00AA
:1032F0000024F40085889D43858030BD024600206F
:1033000013890B400BB1012000E000207047CA4335
:1033100002817047F0B502460020002400230025FA
:1033200001F00F070126BE40B4B20B1101269E40EA
:10333000B3B2968806EA03051689264016B10DB188
:10334000012000E00020F0BD10B5002201F00F04C4
:103350000123A3409AB2D343038110BD00204FF054
:10336000E021886145F20720486103200861704729
:103370001CB501210220FEF797FB4FF60340009099
:1033800001208DF8040000208DF8060002208DF841
:10339000050000208DF807006946FE48FEF7E6F8B4
:1033A0000120FD490860FD49C1F88402FA4928312D
:1033B0000860091D0860091D0860091D0860091DD5
:1033C0000860F649C1F8BC021CBD1CB501210846C5
:1033D000FEF76AFB01210420FEF766FB3F20009008
:1033E00000208DF8040001208DF807006946EC48A4
:1033F000FEF7BCF8C02000906946EA48FEF7B6F830
:103400001CBD00B587B001210846FEF74DFB012128
:103410004804FEF792FB07220221E248FEF731F949
:103420000420059002208DF8180000208DF81A0065
:1034300001208DF81B0002208DF8190005A9D9483C
:10344000FEF794F84FF4E13001900020ADF8080049
:10345000ADF80A00ADF80C00ADF810000820ADF88A
:103460000E0001A9D048FFF776FB0121CE48FFF7F7
:10347000FAFB4021CC48FFF7DEFC07B000BD30B5B9
:1034800002460B464FF6FF70002113E032F8115050
:10349000684000240AE000F0010525B14AF2010568
:1034A00085EA600000E04010651CECB2102CF2DBF5
:1034B0004D1CE9B29942E9DB30BD70B504460421E8
:1034C0002046FFF7DCFF208100251AE000BF8021A5
:1034D000B548FFF7A3FC0028F9D034F81510B2481E
:1034E000FFF7ECFB00BF8021AF48FFF797FC0028F7
:1034F000F9D034F815000112AB48FFF7DFFB681C68
:10350000C5B2052DE2DB70BD00B59BB00121880579
:10351000FEF7CAFA01210420FEF7C6FA01210802CB
:10352000FEF71CFB00200290A0480390A0480490E6
:1035300000200590012006900020079008904FF48D
:103540000060099080000A9040110B9040020C909E
:1035500000200D9001200E9000200F90109002A9E5
:103560009448FDF779FA01219248FDF7AFFA20203F
:10357000009003208DF8040000208DF807006946B4
:103580008748FDF7F3FF002011904FF48030129030
:1035900000201390149011A8FCF7C4FF0020159090
:1035A0008DF8580001208DF85900002017901890D0
:1035B000199001208DF8680015A97C484C38FCF75B
:1035C00082FF002301220F2178484C38FDF701F8D3
:1035D000012176484C38FDF7A7F8012173484C3893
:1035E000FDF797F8012171484C38FCF7B2FF6F489E
:1035F0004C38FDF74AF81BB000BD00B587B001217B
:103600000220FEF751FA01210803FEF7A7FA012074
:103610006149183108608DF8180000208DF81A00F3
:103620004020059002208DF8190005A95948FDF7A2
:103630009DFF02208DF8180000208DF81A00182038
:10364000059005A95348FDF791FF05220321514834
:10365000FEF717F8052204214E48FEF712F8002065
:10366000ADF800004FF48270ADF802004FF4006036
:10367000ADF804000020ADF80600ADF808004FF4E6
:103680000070ADF80A003020ADF80C000020ADF855
:103690000E000720ADF8100069464748FFF76AFCA6
:1036A00001214548FFF760FD07B000BD1CB50121B1
:1036B0000220FEF7F9F901211020FEF7F5F94FF489
:1036C0006070009001208DF8040000208DF8060045
:1036D00002208DF8050069462E48FDF747FF0620B9
:1036E000009069463548FDF741FF202000900020FA
:1036F0008DF8040069462748FDF738FF002030495F
:10370000086001202F49C1F8840223492431086050
:1037100000202249C1F89C0200BF2B4801680068C4
:10372000401C294A106029488142F6D300201146E6
:1037300008600846006818491C31086000201749D5
:10374000C1F89C0200BF204801680068401C1E4A66
:1037500010601E488142F6D301200F4920310860D5
:10376000FFF74BFF1A4800681A49096840581A4980
:1037700008601748006817490968084440681649F6
:103780004860134800681349096808448068124972
:10379000886023E000040240808240420080404272
:1037A0000008024000000240004400404C2001405C
:1037B000240000201064024000300140001002404C
:1037C000880242420000424228000020FFFF2F00F2
:1037D0002C00002030000020B005002008460068C2
:1037E000FA49884209D1FA484068FA49884204D126
:1037F000F7488068F849884201D000BFFEE71CBD49
:103800000EB501210846FEF798F94FF08040FEF70B
:10381000E9FA4FF6FF70019042F2CF00ADF80000D8
:103820000020ADF80800ADF8020069464FF0804076
:10383000FEF785FB01218807FEF70AFC0EBD00B5E7
:1038400085B001211020FEF72FF901218803FEF732
:1038500085F900208DF808008DF80B0002208DF806
:1038600009000120019001A9DC48FDF77FFE00213D
:103870000420FEF77EFA0120039000208DF810004E
:103880000C208DF8110001208DF8120003A8FDF71F
:1038900023FA4FF4A060FCF79BFD06208DF8000092
:1038A00001208DF8010000208DF8020001208DF824
:1038B00003006846FCF791FD05B000BD00B585B07A
:1038C00001210820FEF7F0F801218803FEF746F9F0
:1038D00000208DF808008DF80B0002208DF80900FB
:1038E0004020019001A9BE48FDF740FE06210320BB
:1038F000FEF73FFA4020039000208DF810000C20C6
:103900008DF8110001208DF8120003A8FDF7E4F9ED
:103910004FF4A060FCF75CFD17208DF8000001203B
:103920008DF801008DF802008DF803006846FCF761
:1039300054FD05B000BD00B585B001210846FEF775
:10394000B3F801218803FEF709F900208DF808007B
:103950008DF80B0002208DF809008002019001A96A
:10396000A048FDF703FE0B210020FEF702FA4FF4FA
:103970000060039000208DF810000C208DF81100DD
:1039800001208DF8120003A8FDF7A6F94FF4A060FE
:10399000FCF71EFD28208DF8000001208DF80100A5
:1039A00002208DF8020001208DF803006846FCF724
:1039B00014FD05B000BD00B599B001211820FEF737
:1039C00073F801210846FEF7A7F80C22002184486D
:1039D000FDF757FE0C2201218148FDF752FE0C2213
:1039E00004217F48FDF74DFE0C2205217C48FDF7A0
:1039F00048FE0C2207217A48FDF743FE0C220821DD
:103A00007748FDF73EFE0C2209217548FDF739FE87
:103A10000C220A217248FDF734FE0C220E21704858
:103A2000FDF72FFE0C220F216D48FDF72AFE4CF208
:103A3000B370019002208DF8080003208DF8090072
:103A400000208DF80A008DF80B0001A96448FDF7ED
:103A50008DFD0C2203216148FDF713FE0C22042189
:103A60005E48FDF70EFE0C2205215C48FDF709FEBD
:103A70000C2206215948FDF704FE0C220721574865
:103A8000FDF7FFFD0C2208215448FDF7FAFD0C223A
:103A900009215248FDF7F5FD0C220A214F48FDF798
:103AA000F0FD0C220B214D48FDF7EBFD0C221146D9
:103AB0004A48FDF7E6FD0C220D214848FDF7E1FDDF
:103AC0000C220E214548FDF7DCFD0C220F21434856
:103AD000FDF7D7FD4FF6F870019001A93F48FDF7BB
:103AE00045FD0B2003900490059006900790002060
:103AF000089009900A900B9008200C9010200D90CF
:103B000000200E900F901090119012904FF4805062
:103B10001390002014901590169003A817901890F9
:103B20000AA8FDF76EF901210020FDF70FFA19B080
:103B300000BD08B501464FF0C04001802A4800880A
:103B4000ADF8000029480088ADF80200009808BDD3
:103B500008B500914FF0C0421080254A1080BDF892
:103B60000020214B1A80BDF80220204B1A8008BD8E
:103B7000F8B506460F461546002000900024ADF823
:103B800000708DF80250C0208DF803004FF4417092
:103B90000099FFF7DDFF00BF4FF44170FFF7C9FF49
:103BA00000909DF8030000F080000028F4D14FF44D
:103BB0004070FFF7BEFF0090002404E01DF80400F1
:103BC0003055601CC4B2AC42F8DBF8BD36002A00A8
:103BD000B005002013473332313432380010024030
:103BE000000C024000000240000020600000306035
:103BF00000001060F8B506460F46154600200090FC
:103C0000002400BF04E0305D0DF80400601CC4B265
:103C1000AC42F8DB4FF440700099FFF799FFADF824
:103C200000708DF8025080208DF803004FF4417031
:103C30000099FFF78DFF00BF4FF44170FFF779FF48
:103C400000909DF8030000F080000028F4D1F8BD3A
:103C50002DE9F84F81468A46144600200090002640
:103C60004FF0804000904FF443700099FFF770FFD1
:103C700000BF4FF44370FFF75CFF00909DF8030016
:103C800000F080000028F4D1ADF800A0ADF80240AB
:103C90004FF442700099FFF75BFF1420FFF749FFD4
:103CA00000904FF0004000904FF443700099FFF7F0
:103CB0004FFF00BF4FF44370FFF73BFF00909DF8AC
:103CC000000000F001000028F4D09DF8010000F091
:103CD0001F080420FFF72DFF0090A8F1010000F05D
:103CE000FF080AF00307C7F10400A04201DD2046E7
:103CF00001E0C7F10400C5B20DEB070109EB0600B6
:103D00002A4604F059FD601B84B27019C6B223E044
:103D10000420FFF70EFF0090042C01DD042000E0DA
:103D20002046C5B209EB06002A46694604F044FD68
:103D30007019C6B2601B84B2A8F1010000F0FF0840
:103D4000B8F1000F08D14FF44370FFF7F2FE009076
:103D50009DF8010000F01F0814B1B8F1000FD7D191
:103D6000BDE8F88F2DE9F84F81468A4614460020B9
:103D7000009000274FF0804000904FF4457000996C
:103D8000FFF7E6FE00BF4FF44570FFF7D2FE00904C
:103D90009DF8030000F080000028F4D1ADF800A0E9
:103DA000ADF802404FF444700099FFF7D1FE4FF098
:103DB000004000904FF445700099FFF7C9FE00BF26
:103DC0004FF44570FFF7B5FE00909DF8000000F03D
:103DD00001000028F4D09DF8010000F01F060AF051
:103DE0000308C8F10400A04201DD204601E0C8F14B
:103DF0000400C5B20020009009EB07010DEB08009C
:103E00002A4604F0D9FC20200099FFF7A1FE701E7D
:103E1000C6B2601B84B27819C7B221E0042C01DD60
:103E2000042000E02046C5B20020009009EB070105
:103E30002A46684604F0C0FC20200099FFF788FE5F
:103E40007819C7B2601B84B2701EC6B246B94FF46F
:103E50004570FFF76EFE00909DF8010000F01F0610
:103E60000EB1002CDAD1BDE8F88F70B506460C46CD
:103E70001546B4F5805F05DB2A4621463046FFF73C
:103E8000E7FE04E0EAB221463046FFF771FE70BD5E
:103E900070B506460C461546B4F5805F05DB2A462C
:103EA00021463046FFF75EFF04E0EAB22146304685
:103EB000FFF7A0FE70BD00002DE9F04107460E4659
:103EC0001446B84614E0B6F5805F01DB254605E0F0
:103ED000042C01DD042000E0204605462A46314638
:103EE0004046FFF7C2FF601B84B2A844701986B237
:103EF000002CE8DCBDE8F08110B572B602224FF468
:103F000008718D48FFF7D8FF62B610BD10B50222C8
:103F10004FF408718848FFF7CFFF10BD2DE9F0413D
:103F200007460D461646B84629E0B5F5805F01DB29
:103F3000344618E0042E01DD042000E0304604463B
:103F400005F0010008B101240DE005F0020038B1D0
:103F500004F0010008B1012000E00220044602E064
:103F6000032C00D1012472B6224629464046FFF7B1
:103F70008FFF62B6301B86B2A044281985B2002E8E
:103F8000D3D1BDE8F0812DE9F04107460E46144635
:103F9000B84616E0B6F5805F01DB254605E0042C47
:103FA00001DD042000E02046054672B62A4631466F
:103FB0004046FFF75AFF62B6601B84B2A8447019EE
:103FC00086B2002CE6DCBDE8F08108B572B6FFF7DA
:103FD000CFF9FFF7FAF9FFF769FBFFF7ECFC00BF39
:103FE0009320009004224FF401716846FFF796FF7A
:103FF0000020009004224FF401716846FFF7C3FFD0
:10400000BDF800009328EBD140F201115420FFF7D6
:104010009FFD01215C20FFF79BFD5820FFF789FDE4
:104020000020009004224FF401716846FFF776FFEC
:10403000FFF705FC062000F074F8FFF73FFCFFF7E0
:104040007AFC172000F06DF8282000F06AF8FFF7DE
:1040500085F962B6002008BD704710B5FFF74CFF28
:104060003548008810BD10B5FFF750FF3248008872
:1040700010BD2DE9F04107460D461646B84627E02B
:10408000B5F5805F01DB344618E0042E01DD042025
:1040900000E03046044605F0010008B101240DE0BF
:1040A00005F0020038B104F0010008B1012000E081
:1040B0000220044602E0032C00D1012422462946B6
:1040C0004046FFF7E5FE301B86B2A044281985B2B2
:1040D000002ED5D1BDE8F08110B500F0C6FC01205E
:1040E000FCF76BFE10BD10B500F037FD4020FCF76B
:1040F00064FE10BD10B50620012181400F4A43091E
:1041000042F8231000BF00F0A3FD4FF40060FCF75D
:1041100054FE062000F005F810BD10B500F042FC7A
:1041200010BD00F01F02012191404209920002F1EE
:10413000E022C2F8001170473400002080E100E066
:1041400070470020704700207047014600207047EC
:1041500000207047002070470020FE494880FE493B
:104160000860FE49C1F88402FB4928310860091D36
:104170000860091D0860091D0860091D0860F749ED
:10418000C1F8BC0270472DE9F34F81B08146002091
:1041900000900025002482468346002600278046A2
:1041A00000BF24E0EE4931F8150002F051FD04464D
:1041B000B4B1A069B0F800A000260EE0711CC8B22E
:1041C000214602F0C7FEA16901EBE00B9BF800005D
:1041D00040441FFA80F8701C86B25645EEDB04E0BE
:1041E0004FF000082520009006E0681C85B2DC48EE
:1041F000801E0088A842D5DC00BF08F107004FEA06
:10420000E008009850BB002522E0D64931F815009F
:1042100002F01EFD0446ACB1A069B0F800A0002673
:104220000DE0711CC8B2214602F094FEA16901EBB9
:10423000E00B9BF80000384487B2701C86B25645EC
:10424000EFDB03E000272420009006E0681C85B225
:10425000C448801E0088A842D7DC00BFF81DC710E4
:10426000A9F800700298A0F800800098BDE8FE8FC1
:1042700002460021104600BF23E0BA4B33F811304C
:10428000B3F5D05F04D0A3F5D053023BB3B904E03B
:10429000B54B5B8820F8023B10E0B44B5B8820F8FC
:1042A000023BB24B9B8820F8023BB04BDB8820F8E6
:1042B000023BAE4B1B8920F8023B00BF00BF4B1CEA
:1042C00099B2A84B9B1E1B888B42D6DC704710B559
:1042D000014600200A4600BF0EE0A14B33F8103023
:1042E0006FF4B054234423B932F8023B994C6380F5
:1042F00000BF00BF431C98B2994B9B1E1B88834292
:10430000EBDC10BD93484088E8B19248408800F447
:104310007F40B0F5AA4F16D014E001208E49086006
:1043200000208E49C1F884028B4928310860091D9C
:104330000860091D0860091D0860091D086087499B
:10434000C1F8BC02E9E78348408883490860814896
:10435000408840108149C1F884027E48408880101E
:10436000C1F8A8027B484088C010C1F8AC02794867
:1043700040880011C1F8B002764840884011C1F869
:10438000B402744840888011C1F8B802714840886E
:10439000C011C1F8BC027648006830B1724840884C
:1043A00040F001007049488005E06F48408820F0E7
:1043B00001006D4948806E48001D006830B16A48B0
:1043C000408840F002006849488005E0664840881F
:1043D00020F002006449488065480830006830B128
:1043E0006148408840F004005F49488005E05E482D
:1043F000408820F004005C4948805D480C3000682B
:1044000030B15948408840F008005749488005E0DD
:104410005548408820F008005349488055480068B6
:1044200030B15148408840F010004F49488005E0C5
:104430004D48408820F010004B4948804D48001DF1
:10444000006830B14848408840F020004649488024
:1044500005E04548408820F0200043494880444812
:104460001030006830B14048408840F040003E497C
:10447000488005E03C48408820F040003A494880A8
:104480003B481430006830B13748408840F0800025
:104490003549488005E03448408820F080003249A2
:1044A00048803548008800B230494880324840880A
:1044B00000B288803048808800B2C8802E48C0880A
:1044C00000B2088170472DE9F04180460D4616463E
:1044D0001C46069F17B10520BDE8F0811DB927488D
:1044E0000088208015E0062D05D196B13146204682
:1044F00004F07BF90DE0072D03D120460021017067
:1045000007E0092D03D120460021017001E01120B0
:10451000E2E70020E0E7FFF758FD00F0ADFB0120E7
:104520001749087017480068174909684058174923
:104530000860144800681449096808444068134931
:1045400048601048006810490968084480680F49AD
:1045500088601DE0040100208082404200804042CB
:10456000EE000020F2000020F6000020FA000020FB
:104570000002414218024042BC0500209C0000207D
:10458000BF040020C0020020C4020020CC0500208F
:1045900008460068484988420DD148484068484963
:1045A000884208D1454880684649884203D10120A5
:1045B0004549087002E000204349087000BF002010
:1045C0004249086000F06AFB01204149C1F8A0029D
:1045D00000F064FB05E000BF3C488C380068002810
:1045E000FAD13A488C3800680028F4D137490839A4
:1045F00008603849888100BF3648008900F0010012
:104600000028F9D03348FEF72DFE3349C88000203A
:104610003049888100BF2F48008900F00100002840
:10462000F9D02C48FEF71EFE2B498880002029492E
:10463000888100BF2748008900F001000028F9D0D8
:104640002448FEF70FFE2449488000202149888134
:1046500000BF2048008900F001000028F9D01D4863
:10466000FEF700FE1C49088001201849083908603F
:10467000154800780128A2D0FFF7EEFC1BE00120CE
:1046800012492039086000201149C1F88402012034
:104690000E49083108600020091D08600120091D2D
:1046A00008600020091D08600120091D0860002025
:1046B0000749C1F8BC02E2E736002A00CC05002019
:1046C0001347333231343238BF040020A0824042D5
:1046D0000080404200300140BC0500209648006840
:1046E000704730B503469449086815E0018999423E
:1046F00011D10268416802B1516001B10A60002421
:104700000460446004898C4D2D682D89AC4201D130
:10471000894C216030BD40680028E7D100BFF9E72F
:1047200030B585480468002504E02589646828467A
:10473000FFF7D7FF002CF8D100207F49086030BD7B
:104740000146002940D07C48006848B97A48016099
:104750000020794A12685060774A126810607047EA
:104760007548006800890A8990420BDD00200860C6
:104770007148006848607048006801606E480160D8
:104780000020ECE76C4802681BE010890B89984216
:1047900001D10120E3E710890B89984209DD1068F7
:1047A00008604A60106808B110684160116000201C
:1047B000D5E7506820B951600A6000204860CEE714
:1047C0005268002AE1D100BF0120C8E770B5054654
:1047D00000262C4607E02046FFF7B2FF06460EB142
:1047E000304670BD283420894FF6FF718842F2D1DF
:1047F0003046F6E710B5002400204F4908604F48C6
:10480000FFF7E4FF04460CB1204610BD4C4810B140
:10481000FFF7DCFF04462046F7E710B520204949A2
:104820000880002048804860886044F21F0088812A
:1048300045480861002048618883086281F840008B
:10484000202042490880002048803E484068486057
:10485000002088603B48808988813B4808610020AF
:1048600048618883086281F8400039490870FFF781
:10487000C1FF04460CB1FFF753FF00203549087013
:104880003549087035490880354908703549086050
:1048900035490860354908603549086010BD38B5AC
:1048A000002432480068002845D02B48007800904A
:1048B0002D4803682B48026829480178274800885A
:1048C0002A4D2D68A8470446FF2C34D02148007893
:1048D000012811D0022804D0032814D004281AD1AA
:1048E00010E02348006830B12148006803F0DCFF85
:1048F00000201F49086000BF00221146204603F037
:1049000075FD08E000BF1848026816480168204697
:1049100003F06CFD00BF00BF00200E4908700F4976
:1049200008800F4908700F4908600F4908600A495C
:1049300008700E49086038BD000300200403002001
:1049400008010020C8080020A08601000C090020F2
:104950004C0500206C0500206D050020700500202E
:104960006E05002074050020780500207C050020DD
:104970008005002010B5F148FFF77AFCF048028866
:10498000F0480188ED48FFF774FB10BD10B5EE4804
:104990000288EE480188EE48FFF78EFAEC48FFF7F0
:1049A00096FC10BD10B5EB48406820B9EA48008875
:1049B000401CE9490880E948007850B1E848B0F95E
:1049C0000000002805DDE6480088401E00B2E449EA
:1049D000088001F0FBFA10BD30B5E24800780028ED
:1049E0003ED1E148007800283AD00021D948808B98
:1049F000012800D1012181B10020D64A5060908366
:104A0000DA4A50609083D44A10800120D84A10704E
:104A10008007406AD74A106021E0D5480078012815
:104A20001DD183075A6A00BFD24B1B68D31AD24CE0
:104A30006343092493FBF4F4C74B1B8843F60955E1
:104A40006B4304EB8310C34B5860C84B5860002382
:104A5000C14C2380C74C2360C54C237000BF00BFEE
:104A600030BD10B5FFF74EFC10BD10B5BE48007844
:104A7000002871D0FFF7F7FA044600BF04F4806005
:104A800068B3BE48007828B1B648007810B100205D
:104A9000BB490880AF48008D002804DDAD48008D7B
:104AA000401EAC490885FFF797FF0120B549087003
:104AB000B548007810B1FFF769FF10E00222A34863
:104AC0000188B248FFF7F8F9A04800889E4A12888A
:104AD0001044801E81B20222AC48FFF7EDF904F4C5
:104AE000006020B19848008808B9FFF775FF994821
:104AF0004088012801D1FFF7B4FFA548007848B1EC
:104B00009A484088012803D098484088222801D13B
:104B1000FFF730FFFFF7A7FA044600BF04F48060F8
:104B2000C8B18C48408D401C8A4948850846408D54
:104B30008E4948850222854801889448FFF7BCF9D0
:104B400082480088804A12881044801E81B2022266
:104B50008E48FFF7B1F900BF10BD10B500208D4998
:104B6000088080480078002871D08948007820B1FA
:104B700089480088401C88490880884800880028A7
:104B800045DD7F48008885490988884220DD6E48D8
:104B9000008800280ADD6F48008D81490989884214
:104BA00004DC6C48008DC01C6A4908856448008894
:104BB00000280DDD6448008850B96C48008D7849A4
:104BC0000989884204DC6948008DC01C6749088552
:104BD0005D480088B0B95A480088002812DDFFF708
:104BE00042FA044600BF04F4006028B96448008813
:104BF000401C6349088004E00020614908805B494B
:104C0000088504E05E480088401C5D4908805648DD
:104C1000007820B95C48007808B1FFF7B7FEFFF7CD
:104C200020FF5B48007890B15E48008800280EDDC8
:104C30005C48008858490988884208D1FFF79AFEE5
:104C400058480088012802D100205349088010BD2F
:104C500010B50020544908804D48007840B14348C1
:104C60004088032804D14F48008808B9FFF782FE26
:104C700000204949088010BD10B5002401F011FB47
:104C8000FFF7CBFD0020344908803A4908603849D5
:104C90000870012045490870204610BD10B54348F2
:104CA000007800B910BD3048007818B13548007858
:104CB00000283AD12B480078002836D12A480078BD
:104CC000C8B9FFF7CAF9044600BF04F4806040B1D8
:104CD00001202C4908702C48007858B1FFF756FE87
:104CE00008E01948008828B904F4006010B10120D8
:104CF0002449087000BF0620012181402C4A430945
:104D000042F8231000BFFFF7ACFE2148007808B13D
:104D1000FFF730FE0620012181404209920002F196
:104D2000E022C2F8001100BF00BF01F01CFBFFF73A
:104D3000B6FD01F0E4F900BFB4E700001C06002056
:104D4000060500201405002008050020120500209B
:104D5000D8050020C8080020CC040020030500204E
:104D6000E2040020E0040020FC0400200C090020E4
:104D7000D4040020D004002040420F00E4040020AE
:104D8000E6040020DE040020DC04002018050020DA
:104D9000DD040020F0040020FA040020E8040020D4
:104DA00050050020F8040020F4040020D504002061
:104DB00080E100E000202449086024490880704711
:104DC00070B504460025E088000B092817D2DFE8FB
:104DD00000F01610050F111213140A00204603F0FC
:104DE000DDF805460DE0204603F061FB054608E0CE
:104DF00000BF00BF00BF00BF00BF042501E00525C4
:104E000000BF00BF284670BD10B504460E480068BC
:104E100040B100210C48006801F047FD00200A491C
:104E200008600FE04FF4807003F066FD04460CB993
:104E3000072010BD0E220649204603F0BDFC204687
:104E400003F035FB0020F4E7D8040020840500209F
:104E50005009002038B5044602224FF4017168461B
:104E6000FFF791F8BDF8000020400090062001F007
:104E70006DFB02224FF401716846FFF74FF80620E0
:104E800001F059FB38BD38B5044602224FF40171D8
:104E90006846FFF778F8BDF8000020430090062030
:104EA00001F054FB02224FF401716846FFF736F817
:104EB000062001F040FB38BD08B50020009002221A
:104EC00040F202516846FFF75EF8BDF8000000901E
:104ED000BDF8000000F40060002805DCBDF800000B
:104EE00000F48050002803DD0020FE49087002E035
:104EF0000120FC49087008BD10B504464FF400605D
:104F000000EBC4010822F848FFF73DF8F64810BD51
:104F100038B504464FF480700090E00000F60605B6
:104F2000022229466846FEF7F9FF00BF0222294601
:104F30006846FFF728F8BDF8000000F480700028EC
:104F4000F4D038BD38B5044600200090E00000F6EB
:104F50000605022229466846FEF7E0FF00BF02224E
:104F600029466846FFF70FF8BDF8000000F480708E
:104F70000028F4D138BD2DE9F047804600270025F0
:104F80000026DA48008841F6FF7188420BDBD748DB
:104F90000088884207DBD5480088884203DBD34875
:104FA0000088884202DA1420BDE8F0870020FFF76D
:104FB000A3FF04466588268805F00100002801DD6E
:104FC0001720F1E706F00100002801DD1720EBE7CC
:104FD000A07900F0010008B916271FE0207900F041
:104FE0000C00042801D0162718E0207900F00200F8
:104FF000022801D0162711E0222D01DA16270DE034
:10500000B5F5807F01DD162708E0B6F5805F01DA8F
:10501000162703E0B6F5005F00DB16271FBB012053
:10502000FFF76AFF04466588268805F0010000281E
:1050300001DD1720B8E706F00100002801DD172088
:10504000B2E7A07900F0010008B916271EE0207928
:1050500000F00C0008B1162718E0207900F00200DB
:10506000022801D0162711E0222D01DA16270DE0C3
:10507000B5F5807F01DD162708E0B6F5805F01DA1F
:10508000162703E0B6F5005F00DB1627002F57D187
:10509000B8F1030F54DD0120954908700320FFF794
:1050A0002BFF04466588268805F00100002801DDF5
:1050B000172079E706F00100002801DD172073E7CB
:1050C000A07900F0010010B10DB9042736E0A079F5
:1050D00000F0010068B387480088854204D1854804
:1050E000008808B1442D01DD032727E0207900F076
:1050F0000C00E0B980480078022805D1B6F5805F41
:1051000002DBB6F5005F07DB7B48007802280CD095
:105110007A480088864208D1207900F002000228EF
:105120000CD100207249087008E0022706E004272D
:1051300004E015B96F48008800B1032707B11E27A6
:10514000F7BBB8F1020F61DD0220FFF7D5FE044680
:105150006588268805F00100002801DD172023E777
:1051600006F00100002801DD17201DE7A07900F0FE
:10517000010010B10DB9042746E0A07900F001004C
:10518000A8B35F480088854237D15D48008878B36E
:10519000442D32DC207900F00C0004282BD1564835
:1051A0000078022805D1B6F5805F02DBB6F5005F16
:1051B00009DB5148007802281BD05248008800E0E3
:1051C00024E0864215D1207900F0400018B101207A
:1051D0004D49087002E000204B490870207900F02A
:1051E0000200022810D10020414908700CE006E0BE
:1051F00003E0022708E0042706E0032704E015B9CE
:105200003F48008800B1032707B11D2787B9C14671
:105210000AE04846FFF770FE0446E0883B490880F4
:1052200009F1010000F0FF09394800788145F0DB01
:105230003846B9E62DE9F04786B000200490039087
:105240000290019080464FF0030A4FF003090024BA
:1052500000254FF6FF762F48808906402E4880892A
:10526000064000202D4908802D4908700220FFF7D4
:1052700043FE0746388823490880387900F0020049
:1052800008B14FF001090320FFF736FE07463888C2
:105290001A490880387900F0020008B14FF0010A7D
:1052A000164800881349098801FB0A001D4909882E
:1052B000884208DD1B4800881B49098808440F49BB
:1052C000098888423BDC0D4800880A49098801FBAF
:1052D0000A0016490988884235DD144800881449B7
:1052E000098827E0240500201C0500200C0500206B
:1052F000FD040020060500200E05002014050020F6
:105300000805002012050020DF0400201A050020F7
:105310000A050020C80800200C09002016050020FE
:10532000DE040020320500202C050020300500207E
:105330002E0500200844FE490988884203DD1E200E
:1053400006B0BDE8F087FB480088FB49098801FBEF
:105350000900FA490988884208DDF8480088F849B8
:1053600009880844F3490988884225DCF148008807
:10537000F149098801FB0900F2490988884208DDE2
:10538000F0480088F04909880844EA4909888842B9
:1053900012DCE8480088E849098801FB0900E44973
:1053A000098888420ADDE2480088E84909880844FB
:1053B000E0490988884201DD1D20C1E702224FF43F
:1053C000186105A8FEF7DFFDBDF814000590042262
:1053D0004FF41A6102A8FEF7D6FD0298029004224B
:1053E00040F6A41101A8FEF7CEFD01980190D8481F
:1053F0004488D8484588BDF8140000F41060E8B32C
:10540000BDF8140000F4C06008B9302098E7BDF87A
:10541000140000F4007030B9BDF8140000F480608E
:1054200008B130208CE78EB106F0040020B9BDF839
:10543000140000F4007038B906F0080030B9BDF867
:10544000140000F4806008B1302079E7BDF8140042
:1054500000F4007060B1BDF8140000F4806038B151
:10546000019828B1DDE90101884201D34FF001081C
:10547000B8F1000F06D006F0100000E002E008B915
:1054800030205DE7B448007820B3BDF8140000F484
:10549000106048B9022C05D0032C03D0022D01D096
:1054A000032D50D130204BE7BDF8140000F480608C
:1054B00028B9032C01D0032D01D1302040E7BDF8DD
:1054C000140000F4007018BB022C01D0022D3AD158
:1054D000302035E7BDF8140000F41060C8B99648D4
:1054E0000088002808DD012498480088002801DD94
:1054F00022250AE0002508E094480088002802DD03
:105500000024012501E00024002501209049888322
:1055100019E089480088002806DDB8F1000F01D0A5
:10552000032402E0022400E00024884800880028C8
:1055300008DDBDF8140000F4806008B1032502E026
:10554000022500E00025032C06D18149029848621B
:1055500080490298486208E0022C06D17C490298F2
:105560004862029880B27B4948627C48007818B94A
:1055700004B10DB92920E3E604B915B10120784939
:1055800008707748007880B16B480088002804DDF7
:105590004FF480607349088007E06C480088002859
:1055A00003DD4FF400606F490880022C05D0032C06
:1055B00003D0022D01D0032D08D101206A490870C3
:1055C0005D48008810B90020664908806048448022
:1055D0006048458000206549088065490880654924
:1055E000088065490880B8F1010F2CD1DDE901017F
:1055F000884212D3DDE90101B0FBF1F05D4908807A
:10560000DDE90101B0FBF1F201FB120040B959489C
:105610000088401C5749088002E001205549088055
:10562000DDE90101B0FBF1F050490880DDE901013D
:10563000B0FBF1F201FB120078B14C480088401C2D
:105640004A49088009E0022C02D10120494908801A
:10565000032D02D0012045490880002047490880D9
:1056600002224FF4846103A8FEF78DFCBDF80C0004
:10567000039031480088002821DDBDF80C00F0B10E
:105680000222510204A8FEF77EFCBDF8100004902F
:10569000BDF8100070B1BDF81010881CBDF80C10DA
:1056A000484346F2A7110844491CB0FBF1F0344AC4
:1056B000108008E0002003903149088003E00020BA
:1056C00004902F4908802E48008810B92D48007892
:1056D00028B92B48008820B12A48007808B91F2033
:1056E0002EE61F48007840B11348008828B11D48B5
:1056F000008840F480601B4908800020224908800F
:1057000022490880224908802249088022490870DD
:1057100022490870224908800E4981F840000C494E
:1057200081F840000885BDF8140000F4007039E0ED
:105730001405002012050020080500203205002075
:105740002C050020300500202E0500200605002035
:10575000C80800200C0900204C050020FD04002092
:10576000FC04002016050020E0040020F8040020BE
:10577000FA040020E8040020E60400204E05002082
:1057800010050020DF040020F2040020F0040020B7
:10579000F4040020F6040020E4040020EA040020C1
:1057A000EC04002030B3029818B90020F8490880B2
:1057B00013E0F84A0299B1FBF2F0052803D2012167
:1057C000F34A118008E04FF6FF7101EA40010A2216
:1057D00091FBF2F1EE4A118000BFBDF8140000F415
:1057E000806038B1DDE90101884204D2E8480088D0
:1057F000E94908801DE0E74A0199B1FBF2F005286C
:1058000003D20121E44A118008E04FF6FF7101EA5A
:1058100040010A2291FBF2F1DF4A1180DC4A118833
:1058200001EBD172DC4B1B8803EB6202DA4B1A806E
:1058300000BFDA480088002802DD0220FFF782FB63
:10584000D7480088002802DD0320FFF77BFBFFF725
:1058500091F8002074E5FF21D248007810B1D248B9
:1058600000887047D148007828B1C820D04A1080FD
:105870000020D04A10800846F3E70020CE49087087
:10588000CE490870704710B5C4480088002802DD72
:105890000220FFF73DFBC2480088002802DD0320FC
:1058A000FFF736FB0C2444F4806444F40064E143C5
:1058B00088B2FFF7CFFA0020BF490870C0490870CE
:1058C000BA490870BF490870BF490870BF490880CD
:1058D000BF490880AE490880BE490880BE4908809B
:1058E000AD490880BD490880BD490880BD4981F89F
:1058F0004000AF490880BC490870BC490870BC49E9
:10590000087010BD0020BA490870704738B50546C8
:105910000C460094B7480078A84201D0B5480570FD
:105920004FF6FF70844208D0BDF8000000900222BC
:105930004FF49A716846FEF7F1FAAE48007800908D
:10594000BDF80000009002224FF498716846FEF7FF
:10595000E5FA38BD2DE9F04105460F460024A04682
:10596000601EA54908800120A449087005F01000B8
:1059700040B14FF001089F48007820F010009D4989
:10598000087010E09B48007800F0100028B105F086
:105990000F00012801D0BDE8F0819648007800F0A2
:1059A0000F009449087005F00F05924806783007FB
:1059B000060E7019C6B2442E24D008DC122E0FD069
:1059C000222E10D0242E13D0422E22D10AE0482EAF
:1059D00016D0822E05D0842E13D0882E19D112E035
:1059E00000BF00BF00BF0220FFF7C5FA044610E069
:1059F0006A496B48FEF7C7FB044604B109E000BFE3
:105A000000BF00BF00BF7E480078FFF7B4FA04462D
:105A100000BF00BF002C7DD100207A4908803046AD
:105A2000342E78D01EDC222876D00EDC142874D0D8
:105A300006DC112872D0122833D013286FD12AE047
:105A400018286DD02128F9D106E1282869D004DC76
:105A5000232867D02428F1D143E031281DD03228F3
:105A6000ECD12DE1482864D00CDC42287AD004DC4B
:105A7000382878D04128E1D1E2E0432874D0442886
:105A8000DCD1F5E08138082849D2DFE800F0CD7696
:105A9000FD6E484848F2132418E11324FFF732FF43
:105AA00014E1FFF709FA5848007800B95124BCB94D
:105AB00000F0CBFD04464CB9002050490870FEF7B9
:105AC00040FB044614B901205049087044B1FF2C32
:105AD00006D04A48007808B9FEF735FB00F008FE0A
